:1000000000001020C1000000FD000000FF00000003
:1000100041010000410100004101000041010000D8
:100020004101000041010000410100000101000008
:100030004101000041010000030100000501000032
:1000400007010000090100000B0100000D01000084
:100050000F01000011010000130100001501000054
:1000600017010000190100001B0100001D01000024
:100070001F010000210100002301000025010000F4
:1000800027010000390100003B0100003D01000094
:100090003F01000049010000290100002B01000080
:1000A0005B0100002D010000310100002F01000064
:1000B000350100003301000037010000410100005C
:1000C000094A0A4B9A4207D0084B074A01E002CA84
:1000D00002C307498B42FAD3064B01E0002204C356
:1000E000054A9342FAD3FEE76801000000000020B1
:1000F0000000002000000020000000207047704732
:100100007047704770477047704770477047704737
:100110007047704770477047704770477047704727
:100120007047704770477047704770477047704717
:100130007047704770477047704770477047704707
:1001400070470123C360704710B58020C005FFF7DA
:10015000F8FF10BD0223C360704710B50148FFF7D8
:08016000F9FF10BD0040004052
:04000003000000C138
:00000001FF
